:100000000202E50202C7000000000002000000003A
:100010000000000200000000000000020296000044
:06002000000000020000D8
:10002600801878A32278A422784B2278B62278B753
:1000360022787022786322A81222E51264C660E252
:10004600E51264C760DFE51264CA60DCE51264E6A7
:1000560060D9E51264E760D6E51264F060D3E51274
:0700660064F160D080D1229B
:10006D00850E12112685000ED3E5B092E6F5B0850A
:10007D0000A0D3E5B092E7F5B0C3E5B092E7F5B0D7
:0F008D00750F00C3E50F94155004050F80F52281
:10009C00753300753400D3E59692E1F596E533653A
:0C00AC000E7004E534650F600280F22243
:1000B800C3E5B092E6F5B0850EA0D3E5B092E7F5BA
:1000C800B0C3E5B092E7F5B0750F00C3E50F94141F
:1000D8005004050F80F5E50E6401600EE50E64021C
:1000E8006008E50E64036002801F7510007511003A
:1000F800C3E51094F4E5119401500E74012510F530
:0A0108001074003511F51180E72294
:0E011200850B82A80C7900850083E0A8E0220E
:10012000750B00E580541FF844C0F580750C00C3C2
:10013000E50C940A5004050C80F5209003750B37EC
:10014000E580541FF844A0F580750C00C3E50C94BD
:100150000A5004050C80F5209003750B38E5805497
:100160001FF84460F580750C00C3E50C940A500438
:0D017000050C80F5209003750B39A80B22BB
:10017D007596F94396085396FB438780759872756B
:10018D008922758DF5C2ACC28FD2ABD2AFC3E589D2
:10019D0092E7F589C3E58992E6F589C3E58992E58C
:1001AD00F589D3E58992E4F589C28E758DFC758B41
:1001BD0018D28E75B0FFD2A8750E1E750F00119C4A
:1001CD00C3E5B092E5F5B0750E3C11B8750E0C1186
:1001DD00B8750E0111B8750E0611B8750E4011B82F
:1001ED00750B00C3E50B94085009750E00116D05D4
:1001FD000B80F0750B00C3E50B94085009750E10BC
:10020D00116D050B80F0750B00C3E50B94085009BB
:10021D00750E18116D050B80F0750B00C3E50B9471
:10022D00085009750E1C116D050B80F0750B00C380
:10023D00E50B94085009750E1E116D050B80F075B8
:10024D000B00C3E50B94085009750E1F116D050BBE
:03025D0080F0220C
:08026000E493F608A3D9F9228A
:10026800750E8011B8750B00C3E50B941050097515
:090278000E20116D050B80F0222F
:10028100850B82A80C7900850083439610850DE0CB
:05029100F05396EF227E
:10029600C0D0C0E0C0F0C082C083C2AFC28FC28EE1
:1002A600758DFC758B1874012533F5337400353460
:1002B600F534D2AFD28ED083D082D0F0D0E0D0D079
:0102C6003205
:1002C700C0D0C0E0C0F0C082C083C2AFA284B392E6
:0E02D70084D2AFD083D082D0F0D0E0D0D0322D
:1002E500758180120583317DC280D281D282C2841C
:1002F500750B00750C00311285000AD3E8941E5069
:1003050009C3E50A940540028003750A05750B01CA
:10031500750C003112850009D3E8941E5009C3E518
:1003250009940540028003750905850AF0740AA43D
:10033500F88500083120850032A12F5168750E809F
:1003450011B8750ECA116DE530600D753102753045
:1003550000750814C281800BE5326438700575316B
:1003650006D280A1675168750E8011B8750ECA1145
:100375006D750EF0116D750E2E116D750E2D116DBD
:10038500750EE6116D750E2E116DE530601875311F
:10039500037530008509F0740AA4F8850008D28039
:1003A500D281C282800DE53264387007753106D27C
:1003B50080D281A1675168750E8011B8750EC7117D
:1003C5006DE530600B753104753000750803800BE1
:1003D500E53264387005753106D282A167C282752F
:1003E5000EF4750F01119CD282750E90750F0111D7
:1003F5009CE530600B753105753000750814C281B8
:10040500A1675168750E8011B8750EC6116DE5307E
:100415006016753101753000850AF0740AA4F885F7
:100425000008D281C280800BE532643870057531D1
:1004350006D281A1675168750E8011B8750E7411C9
:100445006D750EEA116D750E3D116D75F00AE50AB3
:1004550084F82430F50E116D75F00AE50A84E5F08F
:10046500F82430F50E116D750E63116D8026D3E5F8
:100475000A94054002150A802DC3E50A941E500210
:10048500050A8022750B00750C00850A0D518175D2
:1004950031078012E532643760D4E532643960D9BA
:1004A500E532643860DEA1675168750E8011B87554
:1004B5000E74116D750EE7116D750E3D116D75F0AC
:1004C5000AE50984F82430F50E116D75F00AE50981
:1004D50084E5F0F82430F50E116D750E63116D800D
:1004E50035D3E509940540021509803CC3E5099417
:1004F5001E500205098031750B01750C0085090D2B
:100505005181753101753000850AF0740AA4F885AA
:100515000008C2808012E532643760C5E53264396F
:1005250060CAE532643860CF8038E5316401700215
:100535006140E53164027002616AE531640370026D
:1005450061BAE5316404700261E2E5316405700267
:100555008107E53164067002813AE531640770026E
:1005650081AD750E64750F00119CE5087005753039
:090575000180021508613980FEC5
:0E0583007830790575827E758305120260223C
:01057E00007C
:01057F00017A
:01058000007A
:02058100000078
:00000001FF
