:1000000002052B0204CF00000000000200000000E7
:1000100000000002065300000000000204FA000085
:06002000000000020000D8
:10002600801878A32278A422784B2278B62278B753
:1000360022787022786322A83B22E53B643F60E287
:10004600E53B643F60DFE53B643F60DCE53B643FE6
:1000560060D9E53B643F60D6E53B643F60D3E53B52
:07006600643F60D080D1224D
:10006D00853882A8397900850083439610853AE05A
:05007D00F05396EF2294
:10008200E5965402700280F8852E82A82F790085A9
:060092000083E0A8E0225B
:10009800850838752E00752F00C3E52E941F74004F
:1000A8006480F8E52F64809850237408252EF8742E
:1000B80001252EF97400352FFA740829F9E7F6742A
:1000C80001252EF52E7400352FF52F80CC85382785
:0100D8002205
:1000D900C3E5B092E6F5B0852EA0D3E5B092E7F579
:1000E900B0C3E5B092E7F5B0752F00C3E52F9414BE
:1000F9005004052F80F5E52E6401600EE52E64029B
:100109006008E52E64036002801F753800753900A8
:10011900C3E53894F4E5399401500E74012538F596
:0A0129003874003539F53980E722FB
:10013300852E3B112685002ED3E5B092E6F5B085DA
:1001430000A0D3E5B092E7F5B0C3E5B092E7F5B010
:0F015300752F00C3E52F94155004052F80F5225A
:10016200753000753100E530652A7004E531652B84
:1001720060227F67DFFE007F67DFFE007F67DFFEB2
:10018200007F67DFFE0074012530F53074003531E1
:05019200F53180D222CE
:10019700752A00752B00C3E52A942074006480F843
:1001A700E52B648098501D852A38852B39740825DE
:1001B7002AF8863A116D7401252AF52A7400352B21
:0501C700F52B80D2229F
:1001CC00752A00752B00C3E52A942074006480F80E
:1001DC00E52B64809850177408252AF8862E313345
:0F01EC007401252AF52A7400352BF52B80D822B3
:1001FB00E88CF0A4AFF0C88DF0A42FC98CF0A42923
:02020B00F922D6
:10020D0085272C752A1F752B00D3E52A94007400C1
:10021D006480F8E52B64809840257408252AF8C37E
:10022D00E52A9401F9E52B9400FA740829F9E7F60B
:10023D00C3E52A9401F52AE52B9400F52B80CA8598
:03024D002C082258
:100250007596F94396085396FB4387807598727597
:100260008922758DF5C2ACC28FD2ABD2AFC3E589FE
:1002700092E7F589C3E58992E6F589C3E58992E5B8
:10028000F589D3E58992E4F589C28E758DFC758B6D
:1002900018D28E75B0FFD2A87E317FA2DFFEDEFCC1
:1002A000C3E5B092E5F5B0752E3C11D9752E0C1151
:1002B000D9752E0111D9752E0611D9752E4011D977
:1002C000752A00C3E52A94085009752E00313305BC
:1002D0002A80F0752A00C3E52A94085009752E106B
:1002E0003133052A80F0752A00C3E52A94085009A5
:1002F000752E183133052A80F0752A00C3E52A943B
:10030000085009752E1C3133052A80F0752A00C368
:10031000E52A94085009752E1E3133052A80F075A0
:100320002A00C3E52A94085009752E1F3133052A87
:0303300080F02238
:10033300752A00752B00C3E52A942074006480F8A5
:10034300E52B64809850257408252AF885002D85AF
:100353002A2E852B2F118285002CA82DA62C740103
:0D036300252AF52A7400352BF52B80CA22BF
:10037000752A00E580541FF844C0F580752B00C332
:10038000E52B940A5004052B80F5209005752A373B
:100390008016209105752A34800E209205752A3129
:1003A0008006209303752A23E580541FF844A0F5A6
:1003B00080752B00C3E52B940A5004052B80F52093
:1003C0009005752A388016209105752A35800E20F3
:1003D0009205752A328006209303752A30E58054F1
:1003E0001FF84460F580752B00C3E52B940A500478
:1003F000052B80F5209005752A398016209105750A
:100400002A36800E209205752A33800620930375C4
:050410002A65A82A2264
:08041500E493F608A3D9F922D3
:10041D00D3E532940074006480F8E533648098402D
:10042D00111198C3E5329401F532E5339400F5339B
:03043D0080DE223C
:10044000752A00752B00752C00752D00C3E52C94C2
:100450002074006480F8E52D648098502B74082582
:100460002CF88601E964207005A82AA92B227401C2
:10047000252AF52A7400352BF52B7401252CF52C33
:090480007400352DF52D80C42215
:10048900752E8011D9752A00C3E52A941050097573
:090499002E203133052A80F022E7
:1004A200752A00752B00C3E52A942074006480F835
:1004B200E52B64809850157408252AF8762074017B
:0D04C200252AF52A7400352BF52B80DA224F
:1004CF00C000C0D0C0E0C0F0C082C083C2AFA28461
:1004DF00B39284E53464027003753400D2AFD083D5
:0B04EF00D082D0F0D0E0D0D0D000329E
:1004FA00C0D0C0E0C0F0C082C083C2AFC28FC28E7B
:10050A00758DFC758B1874012530F5307400353102
:10051A00F531D2AFD28ED083D082D0F0D0E0D0D015
:01052A00329E
:10052B00758180120684515091897133752E207517
:10053B002F001182850036E4F537E5364537700814
:10054B0075360A7537008017D3E5369464740064EA
:10055B0080F8E5376480984006753664753700710E
:10056B0070850035C129911D9189752E8011D93166
:10057B00CCE535646570053197753402C3E5359468
:10058B00304016D3E5359439500F914085002885BE
:10059B00012974082528F8A635E5356423700291E6
:1005AB00A2C13D9189510D74012532F5327400358C
:1005BB0033F533742065327004740065337006753F
:1005CB003200753300752E8011D931CC806491893E
:1005DB00752E8011D9E5356465701ED3E536940A06
:1005EB0074006480F8E537648098400DC3E5369459
:1005FB000AF536E5379400F537E5356423701DC3EE
:10060B00E536946474006480F8E537648098500C88
:10061B00740A2536F53674003537F5378014E53412
:10062B007002A171E53464027002A1AEE53464017D
:10063B00609CA836A9377C057D0031FB85002A8597
:08064B00012B3162A16A80FE5F
:10065300C000C0D0C0E0C0F0C082C083C2AFA284DB
:10066300B39284E5347003753401D2AFD083D08262
:09067300D0F0D0E0D0D0D000326C
:0E0684007830790875827C7583061204152281
:02067C0000007C
:02067E0000007A
:010680000079
:010681000078
:02068200640012
:00000001FF
